:100000000C9460000C947D000C947D000C94DA003C
:100010000C947D000C947D000C947D000C947D006C
:100020000C947D000C947D000C947D000C947D005C
:100030000C947F000C947D000C947D000C947D004A
:100040000C947D000C9453050C94C6050C94080682
:100050000C947D000C947D000C947D000C947D002C
:100060000C947D000C947D000C940F010C946B019A
:100070000C947D000C947D000C94D1070C947D00B1
:100080000C947D000C947D000C947D000C947D00FC
:100090000C947D000C947D000C947D000C947D00EC
:1000A0007B046B04820473047B0482048904890446
:1000B0008904890489048904890489047B048204ED
:1000C00011241FBECFEFCDBFDFE3DEBF18E2A0E0FB
:1000D000B8E2E4EBF0E102C005900D92A230B10766
:1000E000D9F729E2A2E0B8E201C01D92A339B20714
:1000F000E1F70E94BE000C9458080C9400001F9277
:100100000F920FB60F9211242F933F934F935F934B
:100110006F937F938F939F93AF93BF93EF93FF93CF
:1001200081E08093860A0E949204809102288F5F6A
:100130008093022880910228853020F010920228B6
:100140000E94F703FF91EF91BF91AF919F918F9123
:100150007F916F915F914F913F912F910F900FBEC3
:100160000F901F901895E0E8FAE080ED97E0848703
:10017000958781E0858311828083089521E030E0B6
:1001800088ED84BF209361008FEF9FEF80939C0ADE
:1001900090939D0A1092910A81E08093900AF894BE
:1001A0000E948D040E94B3000E94320378940E9442
:1001B0005A04FDCF1F920F920FB60F9211248F9306
:1001C0008091430181FF08C082E0809343018091C8
:1001D00042018D7F809342018091430180FF19C0CD
:1001E00080918D288F5F80938D2880918D288C330E
:1001F00068F010928D2880918E288F5F80938E28D2
:1002000080918E28883110F010928E2881E08093A2
:1002100043018F910F900FBE0F901F9018951F9262
:100220000F920FB60F9211242F938F939F93EF93FA
:10023000FF939091392880913928992311F08130CA
:10024000C9F580913B2820913A2890913B289093C2
:100250003A2890E0821B9109029798F08091262815
:10026000882351F080918F28806880938F28109286
:100270002628109239281BC01092262881E08093EE
:100280003928E0912628F0E080912008EF5EF74DB4
:100290008083809126288F5F80932628809126284E
:1002A000843178F01092262882E0809339281092C9
:1002B0003A2807C08091200880919028826080931E
:1002C0009028FF91EF919F918F912F910F900FBEEA
:1002D0000F901F9018951F920F920FB60F92112436
:1002E0008F93EF93FF93809137288F5F8093372808
:1002F00080913728803148F4E0913728F0E0EF5EB4
:10030000F74D86898093220808C0809125088F7D4B
:100310008093250885E080933928FF91EF918F9194
:100320000F900FBE0F901F90189580914101811181
:10033000FCCF89EA809340018FEF9FEE80934A01C2
:1003400090934B0181E08093450180934201089591
:10035000E0E4F4E081E08183158288E08183158206
:10036000E0E2F8E083E298E08087918781E8858386
:1003700080EC86830895E1E1F8E2808190E0A3E5D6
:10038000B8E28D939C931197818190E012968D93A2
:100390009C9313972281838190E0922B14968D93E6
:1003A0009C9315972481858190E0922B16968D93CE
:1003B0009C931797868190E018968D939C9319973C
:1003C000878190E01A968D939C931B9780855B960E
:1003D0008C935B9781855A968C935A978285589611
:1003E0008C935897838590E052968D939C93539766
:1003F000848590E054968D939C935597858590E0E5
:1004000056968D939C935797868559968C935997BA
:10041000878590E05C968D939C935D97808990E0B2
:100420001C968D939C931D97818990E01E968D93C9
:100430009C931F972289838990E0922B50968D93ED
:100440009C93519787A590E05C968D939C935D97C4
:10045000089580912728882321F010927128109206
:10046000722880E090E0FC01EE0FFF1FEF58F74D7F
:1004700020813181FC01EF5EF74D268B01968E3095
:10048000910589F78091912882FF10922828809108
:10049000912883FD03C08FEF8093312880912E280F
:1004A0008F7080932E288091912890912E28807FA4
:1004B000892B80932E2880918E28809335288091D7
:1004C0008D28809336280895FB01908192959F7026
:1004D000308132FB332730F9381731F0908180FBBF
:1004E00092F9908380E017C081E0890F481748F4A3
:1004F000281748F090819260908390819E7F90832E
:100500000AC0281740F4808130FB80F98083808105
:100510008D7F8083822F8295807F90819F70892B31
:10052000808308959091192881E0911101C080E0A5
:1005300029E043E06CE378E20E94640280913C2869
:10054000982F917080913C2886958170892B90918D
:100550008F2880FB90F990938F2890913C28809170
:100560008F2890FB81F980938F2880913C28869575
:10057000817090918F2880FB92F990938F289091B1
:100580001A2881E0911101C080E023E040E06FE390
:1005900078E20E94640280913F28869581702091C4
:1005A00053283091542891E0232B09F490E08923BB
:1005B00090913F2880FB93F990933F2880913F28AA
:1005C000817090913F2893FB992790F9892B909106
:1005D0008F2880FB93F990938F2890913F288091EA
:1005E0008F2890FB84F980938F2880913F288695EF
:1005F000817090918F2880FB95F990938F2880913E
:100600003F28982F917080913F2886958170892B83
:1006100090918F2880FB96F990938F28089540E160
:1006200050E062E478E280E090E00E943F0881E0E0
:1006300090E0FC01EE5BF74D208130E0FC01EE0F15
:10064000FF1FEF58F74D2083318301968E309105BF
:1006500081F7909142288091912890FB80F98093B6
:1006600091280895109239280E9439080E940F039A
:100670000E94A8010C94950181E090E0FC01EE0F2E
:10068000FF1FEF58F74D20813181FC01EE5BF74DE4
:10069000208301968E30910589F78091912880936F
:1006A000422880910210F89494E08DE984BF9093E1
:1006B000001080910210E0E0F4E1DF01AE5BBB4E80
:1006C0008C918193EE3084E1F807B9F793E08DE9DE
:1006D00084BF909300107894809192288D7F8093AE
:1006E0009228089590919128917080918F2881701F
:1006F000981761F180913D288F5F80933D2880910C
:100700003D28853158F18091902882FD27C01092B4
:100710003D2880913E288370833091F080913E285F
:100720008F5F982F937080913E288C7F892B8093C8
:100730003E2881E090E080937128909372280EC04B
:100740008091902884608093902808C084E18093F1
:100750003D2880913E288C7F80933E2880918F2871
:1007600086FF37C0909191289695917080918F283F
:1007700083FB882780F9981761F1809140288F5F6B
:100780008093402880914028853658F180919028A8
:1007900083FD27C0109240288091412883708330C8
:1007A00091F0809141288F5F982F9370809141281C
:1007B0008C7F892B8093412882E090E08093712880
:1007C000909372280EC08091902888608093902822
:1007D00008C084E680934028809141288C7F8093D4
:1007E00041288091922881FD0C943C0308958091CA
:1007F0003B288F5F80933B2880913B288D3D38F0CC
:1008000010923B288091902881608093902880915D
:100810003928853079F128F4823041F0833081F035
:100820000895863069F1873089F1089583E08093D7
:100830003928809138288F5F809338280C942902BA
:10084000809138288F5F80933828809138288A30AB
:1008500080F11092382884E080933928109237284C
:1008600080912728809322088091250880628093B8
:100870002508089510923B280E94BB0186E003C022
:100880000E94920287E08093392808950E947203A3
:1008900010923928809190288D7F809390288091A4
:1008A0008F288F7780938F28809190288E7F8093D8
:1008B000902808950E94940483FF2EC0E09194280C
:1008C0008E2F90E0FC013197E031F10510F5E05BEF
:1008D000FF4F0C94490840E150E061E070E08FE880
:1008E00098E20C9422074FE050E061E070E083E56D
:1008F00098E20C949A0640E150E061E070E081E9F2
:1009000098E2EFCF4FE050E061E070E081E798E2DD
:10091000F0CF81E00C946006089581E00E94970476
:100920000C942F060C94100580910628089580934E
:10093000032808956F5F40E050E02FEF3FEF70E035
:1009400046175707B4F4FC01E40FF51FE0812E278A
:10095000E8E0D901A170BB2736952795AB2B21F094
:10096000F1E02F27F0EA3F27E15099F74F5F5F4F03
:10097000E7CFDC01A60FB71FEC91F0E06F5F7F4F70
:10098000A9015527E417F50751F4FC01E60FF71FFD
:10099000408150E0E32FFF274E175F0739F02C937B
:1009A000FC01E60FF71F308380E0089581E0089591
:1009B000FB01A3E0F695E795AA95E1F7E80FF91F8B
:1009C000808190E06770772702C0959587956A953A
:1009D000E2F7F901B3E0F695E795BA95E1F72770EC
:1009E0003327E40FF51F308180FF08C081E090E0DD
:1009F00001C0880F2A95EAF7832B08C081E090E0B8
:100A000001C0880F2A95EAF7809583238083089593
:100A100080E28093062810920428109205280895F9
:100A20008091062885FF3EC080910428909105287A
:100A3000019680930428909305288091062881FFD1
:100A400026C08091042890910528079721F4809171
:100A50000628806425C0809104289091052842973B
:100A600009F588E0809306289091932880910328C7
:100A700098130C940805609107287091082863501A
:100A800083E998E20E949A0481110CC0F2CF809110
:100A9000042890910528409729F4809106288160C8
:100AA0008093062808951F920F920FB60F9211247B
:100AB0002F933F934F935F936F937F938F939F9366
:100AC000AF93BF93EF93FF93809100081092042897
:100AD000109205289091062893FD28C09091062831
:100AE00094FD24C09091062892FD20C09091062884
:100AF00091FF1CC09091062890FD18C020910728F6
:100B0000309108282F3F310521F018F00E94080588
:100B10002CC0E0910728F0910828ED56F74D80830E
:100B2000809107289091082801961BC09091062873
:100B300093FD1BC09091062894FD17C09091062844
:100B400092FD13C09091062891FD0FC09091062848
:100B500090FF0BC08093932882E28093062881E067
:100B600090E08093072890930828FF91EF91BF9120
:100B7000AF919F918F917F916F915F914F913F9135
:100B80002F910F900FBE0F901F9018951F920F92EC
:100B90000FB60F9211242F933F938F939F93EF9350
:100BA000FF93809106288F7E8093062880910628E7
:100BB000846080930628E0910728F0910828ED567C
:100BC000F74D808180930208809107289091082832
:100BD00001968093072890930828809100282091FF
:100BE00007283091082890E001968217930729F48E
:100BF000809105088F7D80930508FF91EF919F916B
:100C00008F913F912F910F900FBE0F901F901895CD
:100C10001F920F920FB60F9211242F933F934F9371
:100C20005F936F937F938F939F93AF93BF93EF9354
:100C3000FF9380E4809304080E940805FF91EF91E0
:100C4000BF91AF919F918F917F916F915F914F91E4
:100C50003F912F910F900FBE0F901F901895E0E0DD
:100C6000F4E081E081831582E0E0F8E082E194E045
:100C70008087918780EC858393E09783868380E2E9
:100C800080930628089592E0980F90930028682F8B
:100C900083E998E20E949A048091062880618093FB
:100CA00006281092072810920828E0E0F8E08581D5
:100CB0008062858380910628877F80930628089527
:100CC000E3E9F8E2918190689183828382E00C9459
:100CD0004306E3E9F8E28581248190E0922B0895B0
:100CE000E3E9F8E28381228190E0922B0895DC0110
:100CF000FB0190E0941751F02D913C9111973083B6
:100D00002D913D9121839F5F3296F4CF0895FB0191
:100D100050E0541771F0DC012C9111966C9130E089
:100D2000322F2227260F311D219331935F5F0296C8
:100D3000F0CF0895CF92DF92EF92FF920F931F931F
:100D4000CF93DF937C018B016A010E946906EC015D
:100D50000E94700620919428263011F4C1E0D0E062
:100D600080179107B8F1C00ED11E9E01280F391FC0
:100D7000C216D30678F120919428233021F02091D7
:100D800094282430D1F49E01220F331F2C3F3105CB
:100D900008F59C2F990F90939528282F201B4C2FF6
:100DA00066E978E2C701820F911D820F911D0E94B2
:100DB0007706809195288E5F37C020919428203146
:100DC00019F52091992830E0AE01440F551F2417E2
:100DD000350720F483E00E9460062AC0409107286E
:100DE00050910828209199284950510930E0421724
:100DF000530780F3801BB701680F711D680F711DC9
:100E00004C2F8AE998E20DC020919428263081F475
:100E1000801BB701680F711D680F711D41E087E9E4
:100E200098E20E94870685E00E94430681E001C0A7
:100E300080E0DF91CF911F910F91FF90EF90DF90B5
:100E4000CF900895CF92DF92EF92FF920F931F936E
:100E5000CF93DF936C018B017A010E946906EC014C
:100E60000E94700620919428253011F4C1E0D0E052
:100E70008017910708F452C0E00EF11E9E01280F62
:100E8000391FE216F30608F449C020919428223055
:100E900021F0209194282130A1F5C93D27E0D20707
:100EA000E8F59E0143E0369527954A95E1F72093B2
:100EB0009528AE0147705527452B49F0F901EA56B0
:100EC000F74D1082209195282F5F20939528E12CD3
:100ED000F12C9C01201B310B8901CE15DF0569F037
:100EE000B8016E0D7F1D970146E958E2C6010E94C8
:100EF000D8043FEFE31AF30AF0CF809195288E5F74
:100F000042C0209194282F3079F52091992848E00B
:100F1000249F900111242C173D0720F483E00E94A8
:100F2000600635C0409107285091082820919928E3
:100F30004950510930E04217530780F3E12CF12C5E
:100F40009C01201B310B8901CE15DF05D9F09801DA
:100F50002E0D3F1DA601B7018AE998E20E94D80430
:100F60003FEFE31AF30AF0CF20919428253079F46B
:100F70009C01201B310BA60160E070E087E998E23C
:100F80000E94D80485E00E94430681E001C080E011
:100F9000DF91CF911F910F91FF90EF90DF90CF9055
:100FA00008951F920F920FB60F9211242F933F9323
:100FB0004F935F936F937F938F939F93AF93BF9361
:100FC000EF93FF9381E08093041080910E288111AC
:100FD00017C010920928809103108E7F8093031010
:100FE00080910F2890911028892B91F1E0910F2882
:100FF000F091102809952CC080910E28882319F1B2
:10100000E0910A28F0910B28CF01019680930A28DD
:1010100090930B28A0910C28B0910D28CD0101963A
:1010200080930C2890930D288C91808380910E28BA
:10103000815080930E2880910A2890910B288F73FD
:101040009927892BC9F693E088ED84BF909300100F
:10105000FF91EF91BF91AF919F918F917F916F9190
:101060005F914F913F912F910F900FBE0F901F9066
:10107000189510920F281092102880E008959B0177
:10108000609109286230E1F3BC017C5EC9010C94D7
:101090004F08EE0FFF1F0590F491E02D0994FB011E
:1010A000DC0102C001900D9241505040D8F70895E4
:0410B000F894FFCFE2
:0210B400070033
:00000001FF
