:100000000C9460000C947D000C947D000C94D8003E
:100010000C947D000C947D000C947D000C947D006C
:100020000C947D000C947D000C947D000C947D005C
:100030000C947F000C947D000C947D000C947D004A
:100040000C947D000C9430030C94A7030C94E903EA
:100050000C947D000C947D000C947D000C947D002C
:100060000C947D000C947D000C940B010C94700199
:100070000C947D000C947D000C947D000C947D000C
:100080000C947D000C947D000C947D000C947D00FC
:100090000C947D000C947D000C947D000C947D00EC
:1000A0000002090212021B0224022D024802480229
:1000B00048024802480248024802480236023F020B
:1000C00011241FBECFEFCDBFDFE3DEBF18E2A0E0FB
:1000D000B8E2E8EEFBE002C005900D92A230B10755
:1000E000D9F729E2A2E0B8E201C01D92A934B20713
:1000F000E1F70E94BE000C94F2050C9400001F92E0
:100100000F920FB60F9211242F933F934F935F934B
:100110006F937F938F939F93AF93BF93EF93FF93CF
:1001200081E08093860A0E945202809102288F5FAC
:100130008093022880910228853020F010920228B6
:100140000E94C201FF91EF91BF91AF919F918F915A
:100150007F916F915F914F913F912F910F900FBEC3
:100160000F901F901895E0E8FAE080ED97E0848703
:10017000958781E0858311828083089521E030E0B6
:1001800088ED84BF20936100E0E9FAE08FEF9FEFF4
:1001900084879587118281E08083F8940E944C02C5
:1001A0000E94B3000E94BD0178940E94EE01FDCF31
:1001B0001F920F920FB60F9211248F93EF93FF931C
:1001C0008091430181FF07C0E0E4F1E082E0838396
:1001D00082818D7F82838091430180FF14C0EFE094
:1001E000F8E285A18F5F85A385A18C3348F015A225
:1001F00084A18F5F84A384A1883110F010923328EA
:1002000081E080934301FF91EF918F910F900FBE9A
:100210000F901F9018951F920F920FB60F921124F6
:100220002F933F938F939F93AF93BF93EF93FF933E
:100230008091052890910628209137283091382800
:100240008217930738F02091372830913828821B85
:10025000930B08C02091372830913828209530958D
:10026000820F931F2091052830910628209337286C
:1002700030933828029760F080912428882319F061
:1002800081E0809336281092242881E0809303280F
:10029000AFE0B8E25596EC915597F0E080912008D8
:1002A000E15FF74D808355968C9155978F5F5596FA
:1002B0008C93559755968C91843128F01092242870
:1002C00083E080930328FF91EF91BF91AF919F91BD
:1002D0008F913F912F910F900FBE0F901F90189507
:1002E0001F920F920FB60F9211248F93EF93FF93EB
:1002F000EFE0F8E286A18F5F86A386A1843148F4FF
:10030000E0913528F0E0E15FF74D8689809322087F
:1003100008C0E0E2F8E085818F7D858384E08093EA
:100320000328FF91EF918F910F900FBE0F901F90B8
:100330001895E0E4F1E081818111FDCFE0E4F1E086
:1003400089EA80838FEF9FEE8287938781E08583A0
:1003500082830895E0E4F4E081E08183158288E0FF
:1003600081831582E0E2F8E083E298E0808791875C
:1003700081E8858380EC868308950E94AA010E940B
:1003800099010895809105289091062801968093FF
:1003900005289093062880910328833019F0843033
:1003A000D1F00895809104288F5F80930428809174
:1003B00004288A3090F01092042882E08093032869
:1003C000EFE0F8E216A28689E0E2F8E08283858118
:1003D0008062858308951092032808950E94550233
:1003E00083FF59C0E0914A288E2F90E0FC0131979D
:1003F000E031F10508F04CC0E05BFF4F0C94EC05D8
:1004000048E050E060E070E088E098E20E9421055A
:10041000089548E050E060E070E087E098E20E94D4
:100420002105089544E050E060E070E089E398E23F
:100430000E948104089544E050E060E070E081E4AF
:1004400098E20E948104089548E050E060E070E086
:1004500088E098E20E942105089544E050E060E0C1
:1004600070E089E398E20E948104089548E050E03A
:1004700060E070E088E098E20E942105089544E081
:1004800050E060E070E089E398E20E948104089502
:1004900081E00E944104089581E00E9458020E9478
:1004A000100408950E94EA02089580910C2808958E
:1004B000809309280895CF93DF93EC016F5FD9F003
:1004C000FC01DC01A60FB11D2FEF3FEF9081292722
:1004D00098E0A9014170552736952795452B21F0C5
:1004E00081E0282780EA3827915099F73196EA175A
:1004F000FB0761F702C02FEF3FEF462F50E0FE01F0
:10050000E40FF51F808190E0B901772786179707E0
:1005100059F4DA011196AC0FBD1F8C9190E0632F56
:1005200077278617970749F020834F5F5F4FFE01BB
:10053000E40FF51F308380E001C081E0DF91CF91AF
:100540000895FB01F695E795F695E795F695E795FD
:10055000E80FF91F808190E06770772702C09595BA
:1005600087956A95E2F780FF16C0F901F695E79541
:10057000F695E795F695E795E40FF51F408127700E
:10058000332781E090E002C0880F991F2A95E2F797
:10059000842B80830895F901F695E795F695E79504
:1005A000F695E795E40FF51F40812770332781E02A
:1005B00090E002C0880F991F2A95E2F78095842366
:1005C0008083089580E280930C2810920A2810926C
:1005D0000B28089580910C2885FF41C080910A283E
:1005E00090910B28019680930A2890930B28809174
:1005F0000C2881FF29C080910A2890910B28079729
:1006000031F480910C28806480930C2808958091A7
:100610000A2890910B28429711F588E080930C28C6
:10062000909149288091092898130BC060910D285A
:1006300070910E28635089E498E20E945B02811158
:100640000EC00E94E202089580910A2890910B2822
:10065000409729F480910C28816080930C2808959C
:100660001F920F920FB60F9211242F933F934F9327
:100670005F936F937F938F939F93AF93BF93EF930A
:10068000FF939091000810920A2810920B288091F5
:100690000C2883FD2CC080910C2884FD28C08091FB
:1006A0000C2882FD24C080910C2881FF20C08091FD
:1006B0000C2880FD1CC020910D2830910E282F3F62
:1006C000310521F018F00E94E20230C0E0910D28BF
:1006D000F0910E28E75BF74D908380910D28909163
:1006E0000E28019680930D2890930E281FC08091AC
:1006F0000C2883FD1BC080910C2884FD17C08091BD
:100700000C2882FD13C080910C2881FD0FC08091C0
:100710000C2880FF0BC09093492882E280930C281C
:1007200081E090E080930D2890930E28FF91EF9147
:10073000BF91AF919F918F917F916F915F914F91F9
:100740003F912F910F900FBE0F901F9018951F9201
:100750000F920FB60F9211242F933F938F939F9375
:10076000EF93FF9380910C288F7E80930C288091CB
:100770000C28846080930C28E0910D28F0910E28BD
:10078000E75BF74D80818093020880910D2890915E
:100790000E28019680930D2890930E2880910028B2
:1007A00020910D2830910E2890E001968217930732
:1007B00029F4E0E0F8E085818F7D8583FF91EF915A
:1007C0009F918F913F912F910F900FBE0F901F908F
:1007D00018951F920F920FB60F9211242F933F93EB
:1007E0004F935F936F937F938F939F93AF93BF9339
:1007F000EF93FF9380E4809304080E94E202FF914C
:10080000EF91BF91AF919F918F917F916F915F9188
:100810004F913F912F910F900FBE0F901F90189501
:10082000E0E0F4E081E081831582E0E0F8E082E13D
:1008300094E08087918780EC858393E0978386831B
:1008400080E280930C28089592E0980F90930028FE
:10085000682F89E498E20E945B0280910C288061F5
:1008600080930C2810920D2810920E28E0E0F8E0FA
:1008700085818062858380910C28877F80930C28F6
:100880000895E9E4F8E2918190689183828382E09F
:100890000E9424040895E9E4F8E28581248190E02F
:1008A000922B0895E9E4F8E28381228190E0922B73
:1008B0000895442381F0A82FB92FE62FF72F80E069
:1008C0002D913C91119730832D913D9121838F5F24
:1008D00032964813F5CF0895442391F0E82FF92F6D
:1008E000A62FB72F20E08081318190E0982F8827B4
:1008F000830F911D8D939D932F5F32964213F3CFFB
:100900000895CF92DF92EF92FF920F931F93CF93B0
:10091000DF936C018B01EA010E944B047C010E9471
:10092000520420914A28263019F4EE24E394F12C45
:100930008017910708F476C0C00FD11F9701280FC8
:10094000391FC217D30708F46DC020914A282330FD
:1009500021F020914A28243009F59701220F331FF6
:100960002C3F3105B0F49E2D990FC9E4D8E29A834B
:10097000801B90E0880F991F4E2D6CE478E28C0D5F
:100980009D1D0E9459048A818E5F0E94240481E08B
:100990004FC083E00E94410480E04AC020914A2871
:1009A000203159F520914F2830E0A701440F551F01
:1009B00024173507E8F040910D2850910E2820911A
:1009C0004F284950510930E04217530788F0801BE7
:1009D000682F70E0660F771F6C0D7D1D4E2D80E532
:1009E00098E20E946C0485E00E94240481E020C00B
:1009F00083E00E94410480E01BC020914A282630F9
:100A0000B1F4801B682F70E0660F771F6C0D7D1DA1
:100A100041E08DE498E20E946C0485E00E94240489
:100A200081E006C083E00E94410480E001C080E0D4
:100A3000DF91CF911F910F91FF90EF90DF90CF90BA
:100A40000895CF92DF92EF92FF920F931F93CF936F
:100A5000DF936C017B01EA010E944B048C010E9430
:100A6000520420914A28253011F401E010E08E153F
:100A70009F0508F4A2C0CE0DDF1D9801280F391F75
:100A8000C217D30708F499C020914A28223029F0D0
:100A900020914A28213009F041C0093D27E0120782
:100AA000C0F5980136952795369527953695279563
:100AB00020934B28A80147705527452B69F0332711
:100AC000A9E4B8E2F901E45BF74D108212962C918B
:100AD00012972F5F12962C930115110599F0C0E023
:100AE000D0E09C012E193F097901B7016C0F7D1FE1
:100AF0009E014CE458E2C6010E94A10221960C1707
:100B00001D0799F780914B288E5F0E94240481E095
:100B10005AC083E00E94410480E055C020914A28D9
:100B20002F30C1F520914F2830E0220F331F220FC4
:100B3000331F220F331F2017310738F140910D2842
:100B400050910E2820914F284950510930E042170A
:100B50005307D8F00115110599F0C0E0D0E09C01D1
:100B60002E193F09790197012C0F3D1FA601BE01E7
:100B700080E598E20E94A10221960C171D0799F7C3
:100B800085E00E94240481E01EC083E00E944104AD
:100B900080E019C020914A282530A1F49C012E192B
:100BA0003F09A60160E070E08DE498E20E94A10296
:100BB00085E00E94240481E006C083E00E94410495
:100BC00080E001C080E0DF91CF911F910F91FF90F5
:100BD000EF90DF90CF900895EE0FFF1F0590F491F6
:080BE000E02D0994F894FFCF09
:020BE800070004
:02000004008278
:0900000000007E0000F6FFFFFF86
:02000004008377
:01000000C53A
:00000001FF
